{
  "contractName": "ChangeName",
  "abi": [
    {
      "inputs": [],
      "stateMutability": "nonpayable",
      "type": "constructor"
    },
    {
      "anonymous": false,
      "inputs": [
        {
          "indexed": true,
          "internalType": "address",
          "name": "_address",
          "type": "address"
        },
        {
          "indexed": false,
          "internalType": "string",
          "name": "_fullName",
          "type": "string"
        },
        {
          "indexed": false,
          "internalType": "uint256",
          "name": "_age",
          "type": "uint256"
        },
        {
          "indexed": false,
          "internalType": "string",
          "name": "_university",
          "type": "string"
        }
      ],
      "name": "LogAddDataStudent",
      "type": "event"
    },
    {
      "inputs": [],
      "name": "admin",
      "outputs": [
        {
          "internalType": "address",
          "name": "",
          "type": "address"
        }
      ],
      "stateMutability": "view",
      "type": "function",
      "constant": true
    },
    {
      "inputs": [
        {
          "internalType": "address",
          "name": "",
          "type": "address"
        }
      ],
      "name": "students",
      "outputs": [
        {
          "internalType": "string",
          "name": "fullName",
          "type": "string"
        },
        {
          "internalType": "string",
          "name": "deccription",
          "type": "string"
        },
        {
          "internalType": "uint256",
          "name": "age",
          "type": "uint256"
        },
        {
          "internalType": "string",
          "name": "university",
          "type": "string"
        },
        {
          "internalType": "address",
          "name": "addressStudent",
          "type": "address"
        }
      ],
      "stateMutability": "view",
      "type": "function",
      "constant": true
    },
    {
      "inputs": [
        {
          "internalType": "uint256",
          "name": "",
          "type": "uint256"
        }
      ],
      "name": "totalAddressResgiter",
      "outputs": [
        {
          "internalType": "address",
          "name": "",
          "type": "address"
        }
      ],
      "stateMutability": "view",
      "type": "function",
      "constant": true
    },
    {
      "inputs": [],
      "name": "getTotalAccountOfStudent",
      "outputs": [
        {
          "internalType": "address[]",
          "name": "",
          "type": "address[]"
        }
      ],
      "stateMutability": "view",
      "type": "function",
      "constant": true
    },
    {
      "inputs": [
        {
          "internalType": "address",
          "name": "_address",
          "type": "address"
        },
        {
          "internalType": "string",
          "name": "_fullName",
          "type": "string"
        },
        {
          "internalType": "string",
          "name": "_deccription",
          "type": "string"
        },
        {
          "internalType": "uint256",
          "name": "_age",
          "type": "uint256"
        },
        {
          "internalType": "string",
          "name": "_university",
          "type": "string"
        }
      ],
      "name": "adminAddData",
      "outputs": [],
      "stateMutability": "nonpayable",
      "type": "function"
    },
    {
      "inputs": [
        {
          "internalType": "string",
          "name": "_fullName",
          "type": "string"
        },
        {
          "internalType": "string",
          "name": "_deccription",
          "type": "string"
        },
        {
          "internalType": "uint256",
          "name": "_age",
          "type": "uint256"
        },
        {
          "internalType": "string",
          "name": "_university",
          "type": "string"
        }
      ],
      "name": "studentAddData",
      "outputs": [],
      "stateMutability": "nonpayable",
      "type": "function"
    },
    {
      "inputs": [
        {
          "internalType": "address",
          "name": "_address",
          "type": "address"
        }
      ],
      "name": "deleteInformationOfStudent",
      "outputs": [],
      "stateMutability": "nonpayable",
      "type": "function"
    },
    {
      "inputs": [
        {
          "internalType": "address",
          "name": "_address",
          "type": "address"
        },
        {
          "internalType": "string",
          "name": "_fullName",
          "type": "string"
        },
        {
          "internalType": "string",
          "name": "_deccription",
          "type": "string"
        },
        {
          "internalType": "uint256",
          "name": "_age",
          "type": "uint256"
        },
        {
          "internalType": "string",
          "name": "_university",
          "type": "string"
        }
      ],
      "name": "updateInformation",
      "outputs": [],
      "stateMutability": "nonpayable",
      "type": "function"
    }
  ],
  "bytecode": "0x608060405234801561001057600080fd5b50336000806101000a81548173ffffffffffffffffffffffffffffffffffffffff021916908373ffffffffffffffffffffffffffffffffffffffff160217905550611ba7806100606000396000f3fe608060405234801561001057600080fd5b50600436106100885760003560e01c8063a6c807a91161005b578063a6c807a914610113578063f851a44014610147578063f8ca970914610165578063fe19982b1461018157610088565b8063225d39c91461008d57806348d68a7f146100bd5780634b68762f146100d957806376d04188146100f7575b600080fd5b6100a760048036038101906100a2919061134f565b61019d565b6040516100b491906113bd565b60405180910390f35b6100d760048036038101906100d2919061151e565b6101dc565b005b6100e16105d9565b6040516100ee9190611697565b60405180910390f35b610111600480360381019061010c91906116e5565b610667565b005b61012d600480360381019061012891906117b4565b610af3565b60405161013e959493929190611878565b60405180910390f35b61014f610ce1565b60405161015c91906113bd565b60405180910390f35b61017f600480360381019061017a91906116e5565b610d05565b005b61019b600480360381019061019691906117b4565b610ee3565b005b600181815481106101ad57600080fd5b906000526020600020016000915054906101000a900473ffffffffffffffffffffffffffffffffffffffff1681565b60008054906101000a900473ffffffffffffffffffffffffffffffffffffffff1673ffffffffffffffffffffffffffffffffffffffff163373ffffffffffffffffffffffffffffffffffffffff16141561026b576040517f08c379a00000000000000000000000000000000000000000000000000000000081526004016102629061192c565b60405180910390fd5b6000805b60018054905081101561030a573373ffffffffffffffffffffffffffffffffffffffff16600182815481106102a7576102a661194c565b5b9060005260206000200160009054906101000a900473ffffffffffffffffffffffffffffffffffffffff1673ffffffffffffffffffffffffffffffffffffffff1614156102f7576001915061030a565b8080610302906119aa565b91505061026f565b50806105975784600260003373ffffffffffffffffffffffffffffffffffffffff1673ffffffffffffffffffffffffffffffffffffffff1681526020019081526020016000206000019080519060200190610366929190611262565b5083600260003373ffffffffffffffffffffffffffffffffffffffff1673ffffffffffffffffffffffffffffffffffffffff16815260200190815260200160002060010190805190602001906103bd929190611262565b5082600260003373ffffffffffffffffffffffffffffffffffffffff1673ffffffffffffffffffffffffffffffffffffffff1681526020019081526020016000206002018190555081600260003373ffffffffffffffffffffffffffffffffffffffff1673ffffffffffffffffffffffffffffffffffffffff168152602001908152602001600020600301908051906020019061045b929190611262565b506001339080600181540180825580915050600190039060005260206000200160009091909190916101000a81548173ffffffffffffffffffffffffffffffffffffffff021916908373ffffffffffffffffffffffffffffffffffffffff16021790555033600260003373ffffffffffffffffffffffffffffffffffffffff1673ffffffffffffffffffffffffffffffffffffffff16815260200190815260200160002060040160006101000a81548173ffffffffffffffffffffffffffffffffffffffff021916908373ffffffffffffffffffffffffffffffffffffffff1602179055503373ffffffffffffffffffffffffffffffffffffffff167feecc2e491bc6b6160ea1a51a931a361df4274d336b2b643f2a5bbc0594f6a89986858560405161058a939291906119f3565b60405180910390a26105d2565b6040517f08c379a00000000000000000000000000000000000000000000000000000000081526004016105c990611a84565b60405180910390fd5b5050505050565b6060600180548060200260200160405190810160405280929190818152602001828054801561065d57602002820191906000526020600020905b8160009054906101000a900473ffffffffffffffffffffffffffffffffffffffff1673ffffffffffffffffffffffffffffffffffffffff1681526020019060010190808311610613575b5050505050905090565b3373ffffffffffffffffffffffffffffffffffffffff1660008054906101000a900473ffffffffffffffffffffffffffffffffffffffff1673ffffffffffffffffffffffffffffffffffffffff16146106f5576040517f08c379a00000000000000000000000000000000000000000000000000000000081526004016106ec90611af0565b60405180910390fd5b60008054906101000a900473ffffffffffffffffffffffffffffffffffffffff1673ffffffffffffffffffffffffffffffffffffffff168573ffffffffffffffffffffffffffffffffffffffff161415610784576040517f08c379a000000000000000000000000000000000000000000000000000000000815260040161077b9061192c565b60405180910390fd5b6000805b600180549050811015610823578673ffffffffffffffffffffffffffffffffffffffff16600182815481106107c0576107bf61194c565b5b9060005260206000200160009054906101000a900473ffffffffffffffffffffffffffffffffffffffff1673ffffffffffffffffffffffffffffffffffffffff1614156108105760019150610823565b808061081b906119aa565b915050610788565b5080610ab05784600260008873ffffffffffffffffffffffffffffffffffffffff1673ffffffffffffffffffffffffffffffffffffffff168152602001908152602001600020600001908051906020019061087f929190611262565b5083600260008873ffffffffffffffffffffffffffffffffffffffff1673ffffffffffffffffffffffffffffffffffffffff16815260200190815260200160002060010190805190602001906108d6929190611262565b5082600260008873ffffffffffffffffffffffffffffffffffffffff1673ffffffffffffffffffffffffffffffffffffffff1681526020019081526020016000206002018190555081600260008873ffffffffffffffffffffffffffffffffffffffff1673ffffffffffffffffffffffffffffffffffffffff1681526020019081526020016000206003019080519060200190610974929190611262565b5085600260008873ffffffffffffffffffffffffffffffffffffffff1673ffffffffffffffffffffffffffffffffffffffff16815260200190815260200160002060040160006101000a81548173ffffffffffffffffffffffffffffffffffffffff021916908373ffffffffffffffffffffffffffffffffffffffff1602179055506001869080600181540180825580915050600190039060005260206000200160009091909190916101000a81548173ffffffffffffffffffffffffffffffffffffffff021916908373ffffffffffffffffffffffffffffffffffffffff1602179055508573ffffffffffffffffffffffffffffffffffffffff167feecc2e491bc6b6160ea1a51a931a361df4274d336b2b643f2a5bbc0594f6a899868585604051610aa3939291906119f3565b60405180910390a2610aeb565b6040517f08c379a0000000000000000000000000000000000000000000000000000000008152600401610ae290611a84565b60405180910390fd5b505050505050565b6002602052806000526040600020600091509050806000018054610b1690611b3f565b80601f0160208091040260200160405190810160405280929190818152602001828054610b4290611b3f565b8015610b8f5780601f10610b6457610100808354040283529160200191610b8f565b820191906000526020600020905b815481529060010190602001808311610b7257829003601f168201915b505050505090806001018054610ba490611b3f565b80601f0160208091040260200160405190810160405280929190818152602001828054610bd090611b3f565b8015610c1d5780601f10610bf257610100808354040283529160200191610c1d565b820191906000526020600020905b815481529060010190602001808311610c0057829003601f168201915b505050505090806002015490806003018054610c3890611b3f565b80601f0160208091040260200160405190810160405280929190818152602001828054610c6490611b3f565b8015610cb15780601f10610c8657610100808354040283529160200191610cb1565b820191906000526020600020905b815481529060010190602001808311610c9457829003601f168201915b5050505050908060040160009054906101000a900473ffffffffffffffffffffffffffffffffffffffff16905085565b60008054906101000a900473ffffffffffffffffffffffffffffffffffffffff1681565b60008054906101000a900473ffffffffffffffffffffffffffffffffffffffff1673ffffffffffffffffffffffffffffffffffffffff168573ffffffffffffffffffffffffffffffffffffffff161480610d8a57503373ffffffffffffffffffffffffffffffffffffffff168573ffffffffffffffffffffffffffffffffffffffff16145b15610edc5783600260008773ffffffffffffffffffffffffffffffffffffffff1673ffffffffffffffffffffffffffffffffffffffff1681526020019081526020016000206000019080519060200190610de5929190611262565b5082600260008773ffffffffffffffffffffffffffffffffffffffff1673ffffffffffffffffffffffffffffffffffffffff1681526020019081526020016000206001019080519060200190610e3c929190611262565b5081600260008773ffffffffffffffffffffffffffffffffffffffff1673ffffffffffffffffffffffffffffffffffffffff1681526020019081526020016000206002018190555080600260008773ffffffffffffffffffffffffffffffffffffffff1673ffffffffffffffffffffffffffffffffffffffff1681526020019081526020016000206003019080519060200190610eda929190611262565b505b5050505050565b60008054906101000a900473ffffffffffffffffffffffffffffffffffffffff1673ffffffffffffffffffffffffffffffffffffffff168173ffffffffffffffffffffffffffffffffffffffff161480610f6857503373ffffffffffffffffffffffffffffffffffffffff168173ffffffffffffffffffffffffffffffffffffffff16145b1561125f5760005b60018054905081101561125d578173ffffffffffffffffffffffffffffffffffffffff1660018281548110610fa857610fa761194c565b5b9060005260206000200160009054906101000a900473ffffffffffffffffffffffffffffffffffffffff1673ffffffffffffffffffffffffffffffffffffffff16141561124a576000600182815481106110055761100461194c565b5b9060005260206000200160006101000a81548173ffffffffffffffffffffffffffffffffffffffff021916908373ffffffffffffffffffffffffffffffffffffffff16021790555060405180602001604052806000815250600260008473ffffffffffffffffffffffffffffffffffffffff1673ffffffffffffffffffffffffffffffffffffffff16815260200190815260200160002060000190805190602001906110b2929190611262565b5060405180602001604052806000815250600260008473ffffffffffffffffffffffffffffffffffffffff1673ffffffffffffffffffffffffffffffffffffffff1681526020019081526020016000206001019080519060200190611118929190611262565b506000600260008473ffffffffffffffffffffffffffffffffffffffff1673ffffffffffffffffffffffffffffffffffffffff1681526020019081526020016000206002018190555060405180602001604052806000815250600260008473ffffffffffffffffffffffffffffffffffffffff1673ffffffffffffffffffffffffffffffffffffffff16815260200190815260200160002060030190805190602001906111c6929190611262565b506000600260008473ffffffffffffffffffffffffffffffffffffffff1673ffffffffffffffffffffffffffffffffffffffff16815260200190815260200160002060040160006101000a81548173ffffffffffffffffffffffffffffffffffffffff021916908373ffffffffffffffffffffffffffffffffffffffff1602179055505b8080611255906119aa565b915050610f70565b505b50565b82805461126e90611b3f565b90600052602060002090601f01602090048101928261129057600085556112d7565b82601f106112a957805160ff19168380011785556112d7565b828001600101855582156112d7579182015b828111156112d65782518255916020019190600101906112bb565b5b5090506112e491906112e8565b5090565b5b808211156113015760008160009055506001016112e9565b5090565b6000604051905090565b600080fd5b600080fd5b6000819050919050565b61132c81611319565b811461133757600080fd5b50565b60008135905061134981611323565b92915050565b6000602082840312156113655761136461130f565b5b60006113738482850161133a565b91505092915050565b600073ffffffffffffffffffffffffffffffffffffffff82169050919050565b60006113a78261137c565b9050919050565b6113b78161139c565b82525050565b60006020820190506113d260008301846113ae565b92915050565b600080fd5b600080fd5b6000601f19601f8301169050919050565b7f4e487b7100000000000000000000000000000000000000000000000000000000600052604160045260246000fd5b61142b826113e2565b810181811067ffffffffffffffff8211171561144a576114496113f3565b5b80604052505050565b600061145d611305565b90506114698282611422565b919050565b600067ffffffffffffffff821115611489576114886113f3565b5b611492826113e2565b9050602081019050919050565b82818337600083830152505050565b60006114c16114bc8461146e565b611453565b9050828152602081018484840111156114dd576114dc6113dd565b5b6114e884828561149f565b509392505050565b600082601f830112611505576115046113d8565b5b81356115158482602086016114ae565b91505092915050565b600080600080608085870312156115385761153761130f565b5b600085013567ffffffffffffffff81111561155657611555611314565b5b611562878288016114f0565b945050602085013567ffffffffffffffff81111561158357611582611314565b5b61158f878288016114f0565b93505060406115a08782880161133a565b925050606085013567ffffffffffffffff8111156115c1576115c0611314565b5b6115cd878288016114f0565b91505092959194509250565b600081519050919050565b600082825260208201905092915050565b6000819050602082019050919050565b61160e8161139c565b82525050565b60006116208383611605565b60208301905092915050565b6000602082019050919050565b6000611644826115d9565b61164e81856115e4565b9350611659836115f5565b8060005b8381101561168a5781516116718882611614565b975061167c8361162c565b92505060018101905061165d565b5085935050505092915050565b600060208201905081810360008301526116b18184611639565b905092915050565b6116c28161139c565b81146116cd57600080fd5b50565b6000813590506116df816116b9565b92915050565b600080600080600060a086880312156117015761170061130f565b5b600061170f888289016116d0565b955050602086013567ffffffffffffffff8111156117305761172f611314565b5b61173c888289016114f0565b945050604086013567ffffffffffffffff81111561175d5761175c611314565b5b611769888289016114f0565b935050606061177a8882890161133a565b925050608086013567ffffffffffffffff81111561179b5761179a611314565b5b6117a7888289016114f0565b9150509295509295909350565b6000602082840312156117ca576117c961130f565b5b60006117d8848285016116d0565b91505092915050565b600081519050919050565b600082825260208201905092915050565b60005b8381101561181b578082015181840152602081019050611800565b8381111561182a576000848401525b50505050565b600061183b826117e1565b61184581856117ec565b93506118558185602086016117fd565b61185e816113e2565b840191505092915050565b61187281611319565b82525050565b600060a08201905081810360008301526118928188611830565b905081810360208301526118a68187611830565b90506118b56040830186611869565b81810360608301526118c78185611830565b90506118d660808301846113ae565b9695505050505050565b7f41646d696e206163636f756e742063616e277420746f20726567697374657200600082015250565b6000611916601f836117ec565b9150611921826118e0565b602082019050919050565b6000602082019050818103600083015261194581611909565b9050919050565b7f4e487b7100000000000000000000000000000000000000000000000000000000600052603260045260246000fd5b7f4e487b7100000000000000000000000000000000000000000000000000000000600052601160045260246000fd5b60006119b582611319565b91507fffffffffffffffffffffffffffffffffffffffffffffffffffffffffffffffff8214156119e8576119e761197b565b5b600182019050919050565b60006060820190508181036000830152611a0d8186611830565b9050611a1c6020830185611869565b8181036040830152611a2e8184611830565b9050949350505050565b7f54686973206164647265737320617265616c6c79206578697374656400000000600082015250565b6000611a6e601c836117ec565b9150611a7982611a38565b602082019050919050565b60006020820190508181036000830152611a9d81611a61565b9050919050565b7f4f6e6c792061646d696e2063616e20736f6c7665000000000000000000000000600082015250565b6000611ada6014836117ec565b9150611ae582611aa4565b602082019050919050565b60006020820190508181036000830152611b0981611acd565b9050919050565b7f4e487b7100000000000000000000000000000000000000000000000000000000600052602260045260246000fd5b60006002820490506001821680611b5757607f821691505b60208210811415611b6b57611b6a611b10565b5b5091905056fea2646970667358221220ab4cb2b2466d754e6f98a33253ab855335788b1d60fe4e3c6a3e44f20a12375964736f6c634300080a0033",
  "immutableReferences": {},
  "source": "pragma solidity >=0.4.0 <0.9.0;\ncontract ChangeName{\n    struct Student{\n        string fullName;\n        string deccription;\n        uint age;\n        string university;\n        address addressStudent;\n    }\n    address public admin; \n    address[] public totalAddressResgiter;\n    mapping(address =>Student) public students;\n    event LogAddDataStudent(address indexed _address, string _fullName, uint _age, string _university);\n    \n    constructor(){\n      admin = msg.sender;\n    }\n    \n    modifier onlyAdmin(){\n      require(admin == msg.sender, \"Only admin can solve\");\n      _;\n    }\n\n    function getTotalAccountOfStudent() public view returns(address[] memory){\n        return totalAddressResgiter;\n    }\n\n    function adminAddData(address _address, string memory _fullName, string memory _deccription, uint _age, string memory _university) public onlyAdmin{\n        if(_address == admin){\n            revert(\"Admin account can't to register\");\n        }\n        bool checkStatusAddress = false;\n        for(uint i = 0 ; i < totalAddressResgiter.length ; i++){\n             if(totalAddressResgiter[i] == _address){\n                 checkStatusAddress = true;\n                 break;\n             }\n        }\n        if(!checkStatusAddress){\n            students[_address].fullName = _fullName;\n            students[_address].deccription = _deccription;\n            students[_address].age = _age;\n            students[_address].university = _university;\n            students[_address].addressStudent = _address;\n            totalAddressResgiter.push(_address);\n            emit LogAddDataStudent(_address, _fullName, _age, _university);\n        }else{\n            revert(\"This address areally existed\");\n        }\n        \n    }\n\n    function studentAddData(string memory _fullName, string memory _deccription, uint _age, string memory _university) public{\n        if(msg.sender == admin){\n            revert(\"Admin account can't to register\");\n        }\n        bool checkStatusAddress = false;\n        for(uint i = 0 ; i < totalAddressResgiter.length ; i++){\n             if(totalAddressResgiter[i] == msg.sender){\n                 checkStatusAddress = true;\n                 break;\n             }\n        }\n        if(!checkStatusAddress){\n            students[msg.sender].fullName = _fullName;\n            students[msg.sender].deccription = _deccription;\n            students[msg.sender].age = _age;\n            students[msg.sender].university = _university;\n            totalAddressResgiter.push(msg.sender);\n            students[msg.sender].addressStudent = msg.sender;\n            emit LogAddDataStudent(msg.sender, _fullName, _age,_university);\n        }else{\n            revert(\"This address areally existed\");\n        } \n    }\n\n    function deleteInformationOfStudent(address _address) public {\n        if(_address == admin || _address == msg.sender){\n            for(uint i = 0 ; i < totalAddressResgiter.length ; i++){\n                if(totalAddressResgiter[i] == _address){\n                    totalAddressResgiter[i] = 0x0000000000000000000000000000000000000000;\n                    students[_address].fullName = \"\";\n                    students[_address].deccription = \"\";\n                    students[_address].age = 0;\n                    students[_address].university = \"\";\n                    students[_address].addressStudent = 0x0000000000000000000000000000000000000000;\n                }\n            }\n        }     \n    }\n\n    function updateInformation(address _address, string memory _fullName, string memory _deccription, uint _age, string memory _university) public {\n        if(_address == admin || _address == msg.sender){\n            students[_address].fullName = _fullName;\n            students[_address].deccription = _deccription;\n            students[_address].age = _age;\n            students[_address].university = _university;\n        }\n    }\n\n}    ",
  "sourcePath": "C:\\Users\\Admin\\OneDrive\\My tnh\\ChangeListName\\contracts\\ChangeName.sol",
  "compiler": {
    "name": "solc",
    "version": "0.8.10+commit.fc410830.Emscripten.clang"
  },
  "schemaVersion": "3.4.3",
  "updatedAt": "2022-01-11T10:00:19.572Z",
  "networkType": "ethereum",
  "devdoc": {
    "kind": "dev",
    "methods": {},
    "version": 1
  },
  "userdoc": {
    "kind": "user",
    "methods": {},
    "version": 1
  }
}